:100000000C942A001895000018950000189500001F
:10001000189500001895000018950000189500002C
:100020001895000018950000189500000C94200AFF
:100030000C944C0A189500001895000018950000C3
:1000400018950000189500001895000018950000FC
:10005000189500008FE58DBFC0E4E8E34E2E84E0E4
:100060008EBFD4E0F4E05F2EEEEFF3E0A0E6B0E068
:1000700088278D933197E9F787E489B980E080BDBF
:1000800088E18AB90E9413086624579A7894B89A2E
:10009000B99ABA9A8F9A0E94F80786E086B980ECDE
:1000A00087B9379A0E94F807EEEDF5E10E94F10753
:1000B000E1E0F0E00E940A080E94F80780E090E08A
:1000C000AEE7B0E08D939C9380EC806C87B90E9482
:1000D000C308AAE6B0E08D939C9383EC806C87B94B
:1000E0000E94C308ACE6B0E08D939C9382EC806CD8
:1000F00087B90E94C308AEE6B0E08D939C93A2EA54
:10010000B0E00D911C9141E050E0040F151FA2EAF0
:10011000B0E00D931C93EAE6F0E0D190E080FF247C
:1001200000270E941C090E943F09E4EAF0E00E94B7
:100130000A090E94B909EDE0F0E0A4EAB0E00E94EB
:10014000DF0AECE6F0E0D190E080FF2400270E9477
:100150001C090E943F09E8EAF0E00E940A090E9497
:10016000B909EDE0F0E0A8EAB0E00E94DF0AEEE6AF
:10017000F0E0D190E080FF2400270E941C090E943B
:100180003F09ECEAF0E00E940A090E94B909EDE09B
:10019000F0E0ACEAB0E00E94DF0AA2EAB0E00D9124
:1001A0001C910E3150E0150711F00C944C01E6ED56
:1001B000F5E10E940B0AE4EAF0E00E940A090E94BD
:1001C0005A09EDE0F0E00E94CC08A8EBB0E0EE0C9C
:1001D000000FE794DD92EC92E6EDF5E10E940B0A48
:1001E000E8EAF0E00E940A090E945A09EDE0F0E016
:1001F0000E94CC08A4E7B0E0EE0C000FE794DD927B
:10020000EC92E6EDF5E10E940B0AECEAF0E00E94C8
:100210000A090E945A09EDE0F0E00E94CC08A6E726
:10022000B0E0EE0C000FE794DD92EC92A8EBB0E0AA
:100230008D919C91A0E8B0E08D939C93A4E7B0E0F1
:100240008D919C91A2E8B0E08D939C93A6E7B0E0DD
:100250008D919C91A4E8B0E08D939C9380E090E018
:10026000A2EAB0E08D939C93A4EAB0E0EAEDF5E158
:100270000E94180AA8EAB0E0EAEDF5E10E94180A27
:10028000ACEAB0E0EAEDF5E10E94180A81E090E006
:10029000AEE7B0E08D939C9388E290E00E948E08D8
:1002A000AEE7B0E00D911C91013050E0150711F060
:1002B0000C946400A0E8B0E00D911C9142E350E082
:1002C000041B150BA6E8B0E00D931C93A0E8B0E06A
:1002D0000D911C9148E750E0041B150BA8E8B0E015
:1002E0000D931C93A0E8B0E00D911C9146EE50E0F8
:1002F000041B150BAAE8B0E00D931C93A0E8B0E036
:100300000D911C9148E151E0041B150BACE8B0E0E5
:100310000D931C93A2E8B0E00D911C9142E350E0D4
:10032000041B150BAEE8B0E00D931C93A2E8B0E0FF
:100330000D911C914AEF50E0041B150BA0E9B0E0B1
:100340000D931C93A2E8B0E00D911C914CE251E09A
:10035000041B150BA2E9B0E00D931C93A2E8B0E0DA
:100360000D911C9148EB51E0041B150BA4E9B0E082
:100370000D931C93A4E8B0E00D911C9142E350E072
:10038000041B150BA6E9B0E00D931C93A4E8B0E0A4
:100390000D911C9149E650E0041B150BA8E9B0E053
:1003A0000D931C93A4E8B0E00D911C914DEC50E02E
:1003B000041B150BAAE9B0E00D931C93A4E8B0E070
:1003C0000D911C9145E951E0041B150BACE9B0E01F
:1003D0000D931C9380EC806C87B90E94C308AAE639
:1003E000B0E08D939C9383EC806C87B90E94C30826
:1003F000ACE6B0E08D939C9382EC806C87B90E9450
:10040000C308AEE6B0E08D939C93A2EAB0E00D91F4
:100410001C9141E050E0040F151FA2EAB0E00D93DB
:100420001C93EAE6F0E0D190E080FF2400270E94D0
:100430001C090E943F09E4EAF0E00E940A090E94B8
:10044000B909EDE0F0E0A4EAB0E00E94DF0AECE6D2
:10045000F0E0D190E080FF2400270E941C090E9458
:100460003F09E8EAF0E00E940A090E94B909EDE0BC
:10047000F0E0A8EAB0E00E94DF0AEEE6F0E0D190FA
:10048000E080FF2400270E941C090E943F09ECEA3B
:10049000F0E00E940A090E94B909EDE0F0E0ACEA40
:1004A000B0E00E94DF0AA2EAB0E00D911C910E318B
:1004B00050E0150711F00C94B402E6EDF5E10E944E
:1004C0000B0AE4EAF0E00E940A090E945A09EDE0F2
:1004D000F0E00E94CC08A8EBB0E0EE0C000FE7942F
:1004E000DD92EC92E6EDF5E10E940B0AE8EAF0E01D
:1004F0000E940A090E945A09EDE0F0E00E94CC082F
:10050000A4E7B0E0EE0C000FE794DD92EC92E6ED8C
:10051000F5E10E940B0AECEAF0E00E940A090E9451
:100520005A09EDE0F0E00E94CC08A6E7B0E0EE0C3E
:10053000000FE794DD92EC9280E090E0A2EAB0E058
:100540008D939C93A4EAB0E0EAEDF5E10E94180ACD
:10055000A8EAB0E0EAEDF5E10E94180AACEAB0E0E2
:10056000EAEDF5E10E94180A88E290E00E948E0808
:100570008FEB11E00E940708A0E2B4E0E8EBF0E0A6
:100580000E94890A0E94E9078FEB16E00E94070883
:10059000A0E2B4E0E4E7F0E00E94890A0E94E907E3
:1005A0008FEB1BE00E940708A0E2B4E0E6E7F0E072
:1005B0000E94890A0E94E9078FE711E00E9407085C
:1005C000A6E8B0E04D915C91A8EBB0E00D911C91D4
:1005D0000417150780E014F009F081E08F93AEE86E
:1005E000B0E04D915C91A4E7B0E00D911C9104172F
:1005F000150780E014F009F081E09F9189238F9323
:10060000A6E9B0E04D915C91A6E7B0E00D911C9198
:100610000417150780E014F009F081E09F91892309
:10062000882311F40C941E030E94F80780E090E0E8
:10063000ACE7B0E08D939C930C949107AAE8B0E0EE
:100640004D915C91A8EBB0E00D911C91041715073A
:1006500080E014F009F081E08F93A8E8B0E04D91BC
:100660005C91A8EBB0E00D911C910417150780E098
:100670000CF481E09F9189238F93AEE8B0E04D9117
:100680005C91A4E7B0E00D911C910417150780E080
:1006900014F009F081E09F9189238F93A6E9B0E0DF
:1006A0004D915C91A6E7B0E00D911C9104171507E0
:1006B00080E014F009F081E09F9189238F93ACE7EB
:1006C000B0E00D911C91003050E0150781E009F079
:1006D00080E09F918923882311F40C949703AAEB5F
:1006E000B0E0E4EEF5E10E94BD08EAEBF0E0ADEB2E
:1006F000B0E00E94A8070E94DA0A0E94F807ADEB5A
:10070000B0E00E94EB07E4EEF5E10E94B7070E941B
:10071000BE07ADEBB0E00E94B1070E94BE0781E0CA
:1007200090E0ACE7B0E08D939C930C949107ACE81B
:10073000B0E04D915C91A8EBB0E00D911C910417D5
:10074000150780E014F009F081E08F93AAE8B0E08B
:100750004D915C91A8EBB0E00D911C910417150729
:1007600080E00CF481E09F9189238F93AEE8B0E0A4
:100770004D915C91A4E7B0E00D911C910417150711
:1007800080E014F009F081E09F9189238F93A6E91E
:10079000B0E04D915C91A6E7B0E00D911C9104177B
:1007A000150780E014F009F081E09F9189238F9371
:1007B000ACE7B0E00D911C91003050E0150781E0EE
:1007C00009F080E09F918923882311F40C94100490
:1007D000AAEBB0E0E6EEF5E10E94BD08EAEBF0E03E
:1007E000ADEBB0E00E94A8070E94DA0A0E94F80769
:1007F000ADEBB0E00E94EB07E6EEF5E10E94B70733
:100800000E94BE07ADEBB0E00E94B1070E94BE0798
:1008100081E090E0ACE7B0E08D939C930C9491075D
:10082000ACE8B0E04D915C91A8EBB0E00D911C916B
:100830000417150780E00CF481E08F93AEE8B0E078
:100840004D915C91A4E7B0E00D911C910417150740
:1008500080E014F009F081E09F9189238F93A6E94D
:10086000B0E04D915C91A6E7B0E00D911C910417AA
:10087000150780E014F009F081E09F9189238F93A0
:10088000ACE7B0E00D911C91003050E0150781E01D
:1008900009F080E09F918923882311F40C94780457
:1008A000AAEBB0E0E8EEF5E10E94BD08EAEBF0E06B
:1008B000ADEBB0E00E94A8070E94DA0A0E94F80798
:1008C000ADEBB0E00E94EB07E8EEF5E10E94B70760
:1008D0000E94BE07ADEBB0E00E94B1070E94BE07C8
:1008E00081E090E0ACE7B0E08D939C930C9491078D
:1008F000A6E8B0E04D915C91A8EBB0E00D911C91A1
:100900000417150780E014F009F081E08F93A0E947
:10091000B0E04D915C91A4E7B0E00D911C910417FB
:10092000150780E014F009F081E09F9189238F93EF
:10093000AEE8B0E04D915C91A4E7B0E00D911C9160
:100940000417150780E00CF481E09F9189238F93B1
:10095000A6E9B0E04D915C91A6E7B0E00D911C9145
:100960000417150780E014F009F081E09F918923B6
:100970008F93ACE7B0E00D911C91003050E015076B
:1009800081E009F080E09F918923882311F40C9481
:10099000F104AAEBB0E0EAEEF5E10E94BD08EAEB53
:1009A000F0E0ADEBB0E00E94A8070E94DA0A0E94D6
:1009B000F807ADEBB0E00E94EB07EAEEF5E10E942C
:1009C000B7070E94BE07ADEBB0E00E94B1070E94DE
:1009D000BE0781E090E0ACE7B0E08D939C930C946F
:1009E0009107A6E8B0E04D915C91A8EBB0E00D91C5
:1009F0001C910417150780E014F009F081E08F9333
:100A0000A4E9B0E04D915C91A4E7B0E00D911C9198
:100A10000417150780E014F009F081E09F91892305
:100A20008F93A2E9B0E04D915C91A4E7B0E00D9105
:100A30001C910417150780E00CF481E09F91892335
:100A40008F93A6E9B0E04D915C91A6E7B0E00D91DF
:100A50001C910417150780E014F009F081E09F91C4
:100A600089238F93ACE7B0E00D911C91003050E0EA
:100A7000150781E009F080E09F918923882311F414
:100A80000C946A05AAEBB0E0ECEEF5E10E94BD081B
:100A9000EAEBF0E0ADEBB0E00E94A8070E94DA0AB2
:100AA0000E94F807ADEBB0E00E94EB07ECEEF5E139
:100AB0000E94B7070E94BE07ADEBB0E00E94B107ED
:100AC0000E94BE0781E090E0ACE7B0E08D939C937C
:100AD0000C949107A6E8B0E04D915C91A8EBB0E0D2
:100AE0000D911C910417150780E014F009F081E0C6
:100AF0008F93A4E9B0E04D915C91A4E7B0E00D9133
:100B00001C910417150780E00CF481E09F91892364
:100B10008F93A6E9B0E04D915C91A6E7B0E00D910E
:100B20001C910417150780E014F009F081E09F91F3
:100B300089238F93ACE7B0E00D911C91003050E019
:100B4000150781E009F080E09F918923882311F443
:100B50000C94D205AAEBB0E0EEEEF5E10E94BD08E0
:100B6000EAEBF0E0ADEBB0E00E94A8070E94DA0AE1
:100B70000E94F807ADEBB0E00E94EB07EEEEF5E166
:100B80000E94B7070E94BE07ADEBB0E00E94B1071C
:100B90000E94BE0781E090E0ACE7B0E08D939C93AB
:100BA0000C949107A6E8B0E04D915C91A8EBB0E001
:100BB0000D911C910417150780E014F009F081E0F5
:100BC0008F93AEE8B0E04D915C91A4E7B0E00D9159
:100BD0001C910417150780E014F009F081E09F9143
:100BE00089238F93A8E9B0E04D915C91A6E7B0E02E
:100BF0000D911C910417150780E014F009F081E0B5
:100C00009F9189238F93A6E9B0E04D915C91A6E76F
:100C1000B0E00D911C910417150780E00CF481E001
:100C20009F9189238F93ACE7B0E00D911C91003028
:100C300050E0150781E009F080E09F918923882327
:100C400011F40C944B06AAEBB0E0E0EFF5E10E9442
:100C5000BD08EAEBF0E0ADEBB0E00E94A8070E940F
:100C6000DA0A0E94F807ADEBB0E00E94EB07E0EF74
:100C7000F5E10E94B7070E94BE07ADEBB0E00E940D
:100C8000B1070E94BE0781E090E0ACE7B0E08D9331
:100C90009C930C949107A6E8B0E04D915C91A8EB71
:100CA000B0E00D911C910417150780E014F009F0D5
:100CB00081E08F93AEE8B0E04D915C91A4E7B0E0A5
:100CC0000D911C910417150780E014F009F081E0E4
:100CD0009F9189238F93ACE9B0E04D915C91A6E799
:100CE000B0E00D911C910417150780E014F009F095
:100CF00081E09F9189238F93AAE9B0E04D915C91A7
:100D0000A6E7B0E00D911C910417150780E00CF4E4
:100D100081E09F9189238F93ACE7B0E00D911C9106
:100D2000003050E0150781E009F080E09F918923B1
:100D3000882311F40C94C406AAEBB0E0E2EFF5E1CD
:100D40000E94BD08EAEBF0E0ADEBB0E00E94A8071E
:100D50000E94DA0A0E94F807ADEBB0E00E94EB07B0
:100D6000E2EFF5E10E94B7070E94BE07ADEBB0E0ED
:100D70000E94B1070E94BE0781E090E0ACE7B0E0BE
:100D80008D939C930C949107A6E8B0E04D915C91F3
:100D9000A8EBB0E00D911C910417150780E014F04A
:100DA00009F081E08F93AEE8B0E04D915C91A4E74B
:100DB000B0E00D911C910417150780E014F009F0C4
:100DC00081E09F9189238F93ACE9B0E04D915C91D4
:100DD000A6E7B0E00D911C910417150780E00CF414
:100DE00081E09F9189238F93ACE7B0E00D911C9136
:100DF000003050E0150781E009F080E09F918923E1
:100E0000882311F40C942C07AAEBB0E0E4EFF5E191
:100E10000E94BD08EAEBF0E0ADEBB0E00E94A8074D
:100E20000E94DA0A0E94F807ADEBB0E00E94EB07DF
:100E3000E4EFF5E10E94B7070E94BE07ADEBB0E01A
:100E40000E94B1070E94BE0781E090E0ACE7B0E0ED
:100E50008D939C930C949107A6E8B0E04D915C9122
:100E6000A8EBB0E00D911C910417150780E014F079
:100E700009F081E08F93A4E9B0E04D915C91A4E783
:100E8000B0E00D911C910417150780E00CF481E08F
:100E90009F9189238F93ACE9B0E04D915C91A6E7D7
:100EA000B0E00D911C910417150780E00CF481E06F
:100EB0009F9189238F93ACE7B0E00D911C91003096
:100EC00050E0150781E009F080E09F918923882395
:100ED00011F40C949107AAEBB0E0E6EFF5E10E9463
:100EE000BD08EAEBF0E0ADEBB0E00E94A8070E947D
:100EF000DA0A0E94F807ADEBB0E00E94EB07E8EFDA
:100F0000F5E10E94B7070E94BE07ADEBB0E00E947A
:100F1000B1070E94BE0781E090E0ACE7B0E08D939E
:100F20009C93ADEBB0E00E94E50A082F083011F069
:100F30000C94A4070E94F807E4E0F6E10E94F10790
:100F4000ADEBB0E088278C930C94EA01F894FFCFC6
:100F50008F938D918823E9F711978F910895A0E2DF
:100F6000B4E08D91882311F00CD0FBCF08950E943E
:100F7000070A802D11F005D0FACF08958DE001D039
:100F80008AE09F939FB79F93AF93BF930F937F93F5
:100F9000909164009230E1F3F894909164009395FD
:100FA00090936400992700916300A0E6B0E0A00F41
:100FB000B91F8C930395023009F400270093630056
:100FC000559A7F910F91BF91AF919F919FBF9F9134
:100FD0000895A0E2B4E08D91882311F06CD0FBCF8E
:100FE00008950E94070A802D11F065D0FACF089568
:100FF00081E067D015D080E864C08FE7213039F0F8
:101000008FEB223021F08FE8233009F08FEC810F35
:101010000C94610888EE93E081D03197D9F7089558
:1010200083E099277BC08AEF90E00E948E08A09A07
:10103000A19AA29AA39AA49AA59AAD9885E090E065
:101040000E948E08AC98A898A998AA9AAB9AAC9AD4
:10105000EF93FF93E1E1F1E00E948208FF91EF91AD
:10106000AC9859D0AC9AEF93FF93E1E1F1E00E9484
:101070008208FF91EF91AC984ED0AC9AEF93FF931A
:10108000E1E1F1E00E948208FF91EF91AC9843D03A
:10109000AB98AC9AEF93FF93E1E1F1E00E948208F4
:1010A000FF91EF91AC9837D088E20BD08EE009D059
:1010B00086E007D00895AD9A829505D004D02BD054
:1010C0000895AD98F9CF859510F4AB9A01C0AB980F
:1010D000859510F4AA9A01C0AA98859510F4A99A4A
:1010E00001C0A998859510F4A89A01C0A898AC9A57
:1010F000EF93FF93E1E1F1E00E948208FF91EF910D
:10110000AC9808953197F1F70895689462F80895BE
:10111000E89462F8089581E090E000C0EF93FF93B7
:10112000EE27E82BE92B31F0EDECFAE03197F1F7FF
:101130000197D1F7FF91EF910895B7FE089590E8D8
:10114000B91611F4D0FE08959FEFD91AE90AF90AE9
:1011500009F403950895652F90E8440F551F59270A
:10116000990F47956078102F90E8FF0C001F092712
:10117000990FF7941078003808950E94070A0D928D
:101180000020D9F70895369A3699FECF369A3699C7
:10119000FECF84B195B108953DD0992711278F2DA9
:1011A000880F80E8F82A802F881F08F41FEF41F08D
:1011B0008F57082F07FD04C0003240F08FEF01C0A9
:1011C0008827982FD82EE82EF82E09C08FE1801B93
:1011D000082FF694E794D79497950A95D1F71123A1
:1011E00051F09095D094E094F09481E0980F882786
:1011F000D81EE81EF81E0F2DFE2CED2CD92E0895BA
:10120000D094E094F09491E0D90E9927E91EF91E4C
:1012100010950895D190E190F19001910895219158
:101220003191419151910895FF0C90E89027110F51
:101230009795F794092F0895102FBD2CDE2CEF2CD5
:10124000F02E11234AF4B094D094E094F0949FEFE0
:10125000B91AD90AE90AF90A0EE1FF2039F4FE2C7D
:10126000ED2CDB2CBB240850C2F758C032F00A9595
:10127000BB0CDD1CEE1CFF1CF9CF5FDFD5CF502F60
:101280002D2D3E2D4F2D612F08952DEC3CEC4CEC77
:101290005DE366270FC0BEDFF2DFDD24EE2490E8B9
:1012A000F92E0FE307C0BBDF05C02227332740E23A
:1012B00051E46627552351F1002381F14CDF71F190
:1012C0001627005850580894050B18F407FD03C062
:1012D00025C007FD23C0469537952795F694E794DA
:1012E000D79422D0FF202AF0DD0CEE1CFF1C015009
:1012F00073F09D2D969548F0DD203AF4EE202AF407
:1013000091E0D90E9927E91EF91E8ECF07C09FE7FD
:10131000092FF92A9FEFD92EE92E0895DD24EE2416
:10132000FF240027112708959F929924AA24BB2403
:1013300088E1D216E306F40628F0D21AE30AF40A8A
:10134000089401C08894991CAA1CBB1CDD0CEE1CDF
:10135000FF1C8A9571F7D92CEA2CFB2C9F900895DD
:101360000AF045D061CF5FE322273327442701C02D
:1013700056DFF1DE5038B1F3003899F3902F951B0A
:101380008BF312F434D0FACF983118F02227332798
:101390004427983028F0232F342F44279850F9CF32
:1013A000992329F04695379527959A95D9F7912F46
:1013B000962742F014D0B0F6F794E794D7940F5FD5
:1013C0008BF6A5CF10D051F008F41ADFFF2052F2AF
:1013D000DD0CEE1CFF1C0150CBF799CF9FCFD20E36
:1013E000E31EF41E0895D21AE30AF40A0895DF9268
:1013F000EF92FF920F931F93D22EE32EF42E052F20
:10140000162F6F915F914F913F912F910895C8953D
:10141000319600200895FBDF202DF9DF302DF7DF16
:10142000402DF5DF502D089591E005C092E003C0F6
:1014300094E001C098E0EBDF0D929A95E1F70895F2
:101440007F930F93AF93BF938F939F938FB78F9398
:101450008091690002E0081B21F49CB10E9485087C
:1014600012C000916800A5E6B0E077279CB1A00FFC
:10147000B71F9C938395809369000395023009F40C
:101480000027009368008F918FBF9F918F91BF912C
:10149000AF910F917F9118957F93AF93BF938F93E7
:1014A0009F938FB78F9390916400992399F09A95A9
:1014B000909364009927A0E6B0E080916200A80FA5
:1014C000B91F9C918395823009F48827809362002C
:1014D0009CB901C055988F918FBF9F918F91BF91FB
:1014E000AF917F911895000F111F221F331F089590
:1014F00000951095209530950F5F1F4F2F4F3F4F50
:101500000895019110810EC00191119121913081B6
:101510000BC00191108117FF05C03FEF2FEF04C0F2
:10152000008111272227332737FF03C0E1DF8DE237
:101530008D93CF93DF93CF92DF92EF92AA24BB24B7
:10154000CC24DD24EE2440E2CAE0DD2755E093E31D
:101550008881890F87FD9F7083FD907F891B899308
:101560005A95A9F7C0DFAA1CBB1CCC1CDD1CEE1CC5
:101570004A9551F7E894EFE0FF2782910ED0EB30C7
:10158000E0F71EF068948A2D0CD088278D93EF9099
:10159000DF90CF90DF91CF910895982F829501D061
:1015A000892F8F70805D26F0803309F40895689448
:1015B0008D93089581918D938823E1F7089594E0A8
:1015C00081918D939A95E1F708958FEF83959D9181
:1015D0009923E1F708950000F041000000005265F2
:1015E000736574004100420043004400450046001A
:1015F000470048004900200057686974652053700F
:1016000061636500436C656172656420576F726445
:021610000000D8
:00000001FF
