:100000000C942A001895000018950000189500001F
:10001000189500001895000018950000189500002C
:100020001895000018950000189500000C94960390
:100030000C94C20318950000189500001895000054
:1000400018950000189500001895000018950000FC
:10005000189500008FE58DBFC0E4E8E34E2E84E0E4
:100060008EBFD4E0F4E05F2EEEEFF3E0A0E6B0E068
:1000700088278D933197E9F787E489B980E080BDBF
:1000800088E18AB90E948F016624579A7894B89AB9
:10009000B99ABA9A8F9A0E94740186E086B980EC68
:1000A00087B9379A0E947401E0ECF8E00E946D0174
:1000B000E1E0F0E00E9486010E94740180EC806C17
:1000C00087B90E943902AAE6B0E08D939C9383EC35
:1000D000806C87B90E943902ACE6B0E08D939C93A6
:1000E00082EC806C87B90E943902AEE6B0E08D9355
:1000F0009C93A4E8B0E00D911C9141E050E0040F06
:10010000151FA4E8B0E00D931C93EAE6F0E0D1904F
:10011000E080FF2400270E9492020E94B502E6E8D8
:10012000F0E00E9480020E942F03EDE0F0E0A6E8DC
:10013000B0E00E945004ECE6F0E0D190E080FF24B3
:1001400000270E9492020E94B502EAE8F0E00E94B5
:1001500080020E942F03EDE0F0E0AAE8B0E00E94E8
:100160005004EEE6F0E0D190E080FF2400270E94EA
:1001700092020E94B502EEE8F0E00E9480020E9426
:100180002F03EDE0F0E0AEE8B0E00E945004A4E8F8
:10019000B0E00D911C910E3150E0150711F00C9458
:1001A0002801E8EBF8E00E948103E6E8F0E00E9415
:1001B00080020E94D002EDE0F0E00E944202AAE933
:1001C000B0E0EE0C000FE794DD92EC92E8EBF8E083
:1001D0000E948103EAE8F0E00E9480020E94D002BF
:1001E000EDE0F0E00E944202A4E7B0E0EE0C000F68
:1001F000E794DD92EC92E8EBF8E00E948103EEE8F0
:10020000F0E00E9480020E94D002EDE0F0E00E9447
:100210004202A6E7B0E0EE0C000FE794DD92EC920C
:1002200080E090E0A4E8B0E08D939C93A6E8B0E075
:10023000ECEBF8E00E948E03AAE8B0E0ECEBF8E00B
:100240000E948E03AEE8B0E0ECEBF8E00E948E0373
:1002500088E290E00E940A028FEB11E00E94830185
:10026000A0E2B4E0EAE9F0E00E94FF030E94650129
:100270008FEB16E00E948301A0E2B4E0E4E7F0E037
:100280000E94FF030E9465018FEB1BE00E94830127
:10029000A0E2B4E0E6E7F0E00E94FF030E946501FF
:1002A0008FE711E00E948301AFE9B0E00E9456049D
:1002B000082F033011F00C946101AFE9B0E08827FA
:1002C0008C930C945E00F894FFCFA0E2B4E08D9183
:1002D000882311F06CD0FBCF08950E947D03802D00
:1002E00011F065D0FACF089581E067D015D080E88D
:1002F00064C08FE7213039F08FEB223021F08FE896
:10030000233009F08FEC810F0C94DD0188EE93E02F
:1003100081D03197D9F7089583E099277BC08AEF80
:1003200090E00E940A02A09AA19AA29AA39AA49A83
:10033000A59AAD9885E090E00E940A02AC98A89832
:10034000A998AA9AAB9AAC9AEF93FF93E1E1F1E0F6
:100350000E94FE01FF91EF91AC9859D0AC9AEF93B7
:10036000FF93E1E1F1E00E94FE01FF91EF91AC9873
:100370004ED0AC9AEF93FF93E1E1F1E00E94FE01D1
:10038000FF91EF91AC9843D0AB98AC9AEF93FF9369
:10039000E1E1F1E00E94FE01FF91EF91AC9837D0CE
:1003A00088E20BD08EE009D086E007D00895AD9AA0
:1003B000829505D004D02BD00895AD98F9CF8595BE
:1003C00010F4AB9A01C0AB98859510F4AA9A01C0BD
:1003D000AA98859510F4A99A01C0A998859510F45A
:1003E000A89A01C0A898AC9AEF93FF93E1E1F1E0DD
:1003F0000E94FE01FF91EF91AC9808953197F1F7BB
:100400000895689462F80895E89462F8089581E088
:1004100090E000C0EF93FF93EE27E82BE92B31F03B
:10042000EDECFAE03197F1F70197D1F7FF91EF91F9
:100430000895B7FE089590E8B91611F4D0FE089516
:100440009FEFD91AE90AF90A09F403950895652F6F
:1004500090E8440F551F5927990F47956078102F42
:1004600090E8FF0C001F0927990FF79410780038C7
:100470000895369A3699FECF369A3699FECF84B1D2
:1004800095B108953DD0992711278F2D880F80E8C9
:10049000F82A802F881F08F41FEF41F08F57082F8C
:1004A00007FD04C0003240F08FEF01C08827982F6D
:1004B000D82EE82EF82E09C08FE1801B082FF69465
:1004C000E794D79497950A95D1F7112351F0909519
:1004D000D094E094F09481E0980F8827D81EE81E0D
:1004E000F81E0F2DFE2CED2CD92E0895D094E094FB
:1004F000F09491E0D90E9927E91EF91E1095089500
:10050000D190E190F1900191089521913191419123
:1005100051910895FF0C90E89027110F9795F7944B
:10052000092F0895102FBD2CDE2CEF2CF02E112357
:100530004AF4B094D094E094F0949FEFB91AD90A99
:10054000E90AF90A0EE1FF2039F4FE2CED2CDB2C30
:10055000BB240850C2F758C032F00A95BB0CDD1C12
:10056000EE1CFF1CF9CF65DFD5CF502F2D2D3E2D72
:100570004F2D612F08952DEC3CEC4CEC5DE366278C
:100580000FC0BEDFF2DFDD24EE2490E8F92E0FE38A
:1005900007C0BBDF05C02227332740E251E46627AE
:1005A000552351F1002381F152DF71F116270058D4
:1005B00050580894050B18F407FD03C025C007FD2B
:1005C00023C0469537952795F694E794D79422D083
:1005D000FF202AF0DD0CEE1CFF1C015073F09D2D56
:1005E000969548F0DD203AF4EE202AF491E0D90EF9
:1005F0009927E91EF91E8ECF07C09FE7092FF92A18
:100600009FEFD92EE92E0895DD24EE24FF24002744
:10061000112708959F929924AA24BB2488E1D21619
:10062000E306F40628F0D21AE30AF40A089401C09B
:100630008894991CAA1CBB1CDD0CEE1CFF1C8A951F
:1006400071F7D92CEA2CFB2C9F9008950AF045D025
:1006500061CF5FE322273327442701C056DFF7DE4F
:100660005038B1F3003899F3902F951B8BF312F4A7
:1006700034D0FACF983118F0222733274427983006
:1006800028F0232F342F44279850F9CF992329F0AD
:100690004695379527959A95D9F7912F962742F049
:1006A00014D0B0F6F794E794D7940F5F8BF6A5CFEC
:1006B00010D051F008F41ADFFF2052F2DD0CEE1CCE
:1006C000FF1C0150CBF799CF9FCFD20EE31EF41E33
:1006D0000895D21AE30AF40A0895DF92EF92FF9286
:1006E0000F931F93D22EE32EF42E052F162F6F910A
:1006F0005F914F913F912F910895C89531960020B9
:100700000895FBDF202DF9DF302DF7DF402DF5DFD9
:10071000502D089591E005C092E003C094E001C01F
:1007200098E0EBDF0D929A95E1F708957F930F9390
:10073000AF93BF938F939F938FB78F9380916900EF
:1007400002E0081B21F49CB10E94010212C000913A
:100750006800A5E6B0E077279CB1A00FB71F9C9377
:100760008395809369000395023009F40027009374
:1007700068008F918FBF9F918F91BF91AF910F9123
:100780007F9118957F93AF93BF938F939F938FB76C
:100790008F9390916400992399F09A9590936400B7
:1007A0009927A0E6B0E080916200A80FB91F9C9144
:1007B0008395823009F48827809362009CB901C038
:1007C00055988F918FBF9F918F91BF91AF917F91DE
:1007D0001895000F111F221F331F089500951095C3
:1007E000209530950F5F1F4F2F4F3F4F0895019178
:1007F00010810EC001911191219130810BC00191A6
:10080000108117FF05C03FEF2FEF04C000811127B3
:100810002227332737FF03C0E1DF8DE28D93CF938B
:10082000DF93CF92DF92EF92AA24BB24CC24DD2465
:10083000EE2440E2CAE0DD2755E093E38881890F8A
:1008400087FD9F7083FD907F891B89935A95A9F737
:10085000C0DFAA1CBB1CCC1CDD1CEE1C4A9551F74A
:10086000E894EFE0FF2782910ED0EB30E0F71EF026
:1008700068948A2D0CD088278D93EF90DF90CF90CD
:10088000DF91CF910895982F829501D0892F8F7095
:10089000805D26F0803309F4089568948D9308955F
:1008A00094E081918D939A95E1F708958FEF839568
:1008B0009D919923E1F708950000F04100000000A8
:0608C0005265736574002F
:00000001FF
