:100000000C942A001895000018950000189500001F
:10001000189500001895000018950000189500002C
:100020001895000018950000189500000C942E0DEE
:100030000C945A0D189500001895000018950000B2
:1000400018950000189500001895000018950000FC
:10005000189500008FE58DBFC0E4E8E34E2E84E0E4
:100060008EBFD4E0F4E05F2EEEEFF3E0A0E6B0E068
:1000700088278D933197E9F787E489B980E080BDBF
:1000800088E18AB90E94210B6624579A7894B89A1D
:10009000B99ABA9A8F9A0E94060B86E086B980ECCC
:1000A00087B9379A0E94060BEAEFFBE10E94FD0A2E
:1000B000E1E0F0E00E94180B0E94060B80EC806CDF
:1000C00087B90E94D10BAAE6B0E08D939C9383EC94
:1000D000806C87B90E94D10BACE6B0E08D939C9305
:1000E00082EC806C87B90E94D10BAEE6B0E08D93B4
:1000F0009C93A4E8B0E00D911C9141E050E0040F06
:10010000151FA4E8B0E00D931C93EAE6F0E0D1904F
:10011000E080FF2400270E942A0C0E944D0CE6E894
:10012000F0E00E94180C0E94C70CEDE0F0E0A6E899
:10013000B0E00E94ED0DECE6F0E0D190E080FF240D
:1001400000270E942A0C0E944D0CEAE8F0E00E9471
:10015000180C0E94C70CEDE0F0E0AAE8B0E00E94A5
:10016000ED0DEEE6F0E0D190E080FF2400270E9444
:100170002A0C0E944D0CEEE8F0E00E94180C0E9440
:10018000C70CEDE0F0E0AEE8B0E00E94ED0DA4E8B1
:10019000B0E00D911C910E3150E0150711F00C9458
:1001A0002801E2EFFBE10E94190DE6E8F0E00E9471
:1001B000180C0E94680CEDE0F0E00E94DA0BACE94C
:1001C000B0E0EE0C000FE794DD92EC92E2EFFBE181
:1001D0000E94190DEAE8F0E00E94180C0E94680CD9
:1001E000EDE0F0E00E94DA0BA4E7B0E0EE0C000FC7
:1001F000E794DD92EC92E2EFFBE10E94190DEEE84C
:10020000F0E00E94180C0E94680CEDE0F0E00E9403
:10021000DA0BA6E7B0E0EE0C000FE794DD92EC926B
:1002200080E090E0A4E8B0E08D939C93A6E8B0E075
:10023000E6EFFBE10E94260DAAE8B0E0E6EFFBE165
:100240000E94260DAEE8B0E0E6EFFBE10E94260D2D
:1002500088E290E00E949C0B8FEB11E00E94150B4E
:10026000A0E2B4E0ECE9F0E00E94970D0E94F50AEC
:100270008FEB16E00E94150BA0E2B4E0E4E7F0E09B
:100280000E94970D0E94F50A8FEB1BE00E94150B50
:10029000A0E2B4E0E6E7F0E00E94970D0E94F50AC4
:1002A0008FE711E00E94150BACE9B0E00D911C91B5
:1002B000083E53E0150780E014F009F081E08F93C9
:1002C000A4E7B0E00D911C91083E53E0150780E0D3
:1002D00014F009F081E09F9189238F93A6E7B0E0A5
:1002E0000D911C91083E53E0150780E014F009F0D1
:1002F00081E09F918923882311F40C94930A0E9432
:10030000060B80E090E0ACE7B0E08D939C93ACE905
:10031000B0E00D911C910E3E52E0150780E014F004
:1003200009F081E08F93ACE9B0E00D911C91083E9B
:1003300053E0150780E00CF481E09F918923882326
:1003400011F40C94EA06A4E7B0E00D911C910E3E66
:1003500052E0150780E014F009F081E08F93A4E7E4
:10036000B0E00D911C91083E53E0150780E00CF4BD
:1003700081E09F9189238F93ACE7B0E00D911C91B0
:10038000003050E0150781E009F080E09F9189235B
:10039000882311F40C94FF02A6E7B0E00D911C91A4
:1003A0000E3E52E0150780E014F009F081E08F93D3
:1003B000A6E7B0E00D911C91083E53E0150780E0E0
:1003C0000CF481E09F9189238F93ACE7B0E00D910D
:1003D0001C91003050E0150781E009F080E09F910A
:1003E0008923882311F40C942302AAE9B0E0E0E009
:1003F000FCE10E94CB0BAEE9B0E0E0E0FCE10E9442
:10040000CB0BEEE9F0E0A1EAB0E00E94B40A0E9452
:10041000E80D0E94060BA1EAB0E00E94F70AE0E0B6
:10042000FCE10E94C30A0E94CA0AA1EAB0E00E944D
:10043000BD0A0E94CA0A81E090E0ACE7B0E08D936B
:100440009C930C94FD02A6E7B0E00D911C91043F33
:1004500051E0150780E014F009F081E08F93A6E7E2
:10046000B0E00D911C910E3E52E0150780E00CF4B7
:1004700081E09F9189238F93ACE7B0E00D911C91AF
:10048000003050E0150781E009F080E09F9189235A
:10049000882311F40C947A02AAE9B0E0E2E0FCE1CE
:1004A0000E94CB0BAEE9B0E0E2E0FCE10E94CB0B96
:1004B000EEE9F0E0A1EAB0E00E94B40A0E94E80D83
:1004C0000E94060BA1EAB0E00E94F70AE2E0FCE11C
:1004D0000E94C30A0E94CA0AA1EAB0E00E94BD0AB3
:1004E0000E94CA0A81E090E0ACE7B0E08D939C9353
:1004F0000C94FD02A6E7B0E00D911C910A3F50E07C
:10050000150780E014F009F081E08F93A6E7B0E0D2
:100510000D911C91043F51E0150780E00CF481E03F
:100520009F9189238F93ACE7B0E00D911C9100302F
:1005300050E0150781E009F080E09F91892388232E
:1005400011F40C94D102AAE9B0E0E4E0FCE10E94CD
:10055000CB0BAEE9B0E0E4E0FCE10E94CB0BEEE9AE
:10056000F0E0A1EAB0E00E94B40A0E94E80D0E9407
:10057000060BA1EAB0E00E94F70AE4E0FCE10E9469
:10058000C30A0E94CA0AA1EAB0E00E94BD0A0E9402
:10059000CA0A81E090E0ACE7B0E08D939C930C94A4
:1005A000FD02AAE9B0E0E6E0FCE10E94CB0BAEE977
:1005B000B0E0E6E0FCE10E94CB0BEEE9F0E0A1EA5E
:1005C000B0E00E94B40A0E94E80D0E94060BA1EA66
:1005D000B0E00E94F70AE6E0FCE10E94C30A0E9434
:1005E000CA0AA1EAB0E00E94BD0A0E94CA0A81E0DC
:1005F00090E0ACE7B0E08D939C930C94E806A4E700
:10060000B0E00D911C91043F51E0150780E014F01B
:1006100009F081E08F93A4E7B0E00D911C910E3EAC
:1006200052E0150780E00CF481E09F9189238F93BD
:10063000ACE7B0E00D911C91003050E0150781E06F
:1006400009F080E09F918923882311F40C945B04C6
:10065000A6E7B0E00D911C910E3E52E0150780E038
:1006600014F009F081E08F93A6E7B0E00D911C91A2
:10067000083E53E0150780E00CF481E09F91892348
:100680008F93ACE7B0E00D911C91003050E015075E
:1006900081E009F080E09F918923882311F40C9474
:1006A0007F03AAE9B0E0E8E0FCE10E94CB0BAEE9F1
:1006B000B0E0E8E0FCE10E94CB0BEEE9F0E0A1EA5B
:1006C000B0E00E94B40A0E94E80D0E94060BA1EA65
:1006D000B0E00E94F70AE8E0FCE10E94C30A0E9431
:1006E000CA0AA1EAB0E00E94BD0A0E94CA0A81E0DB
:1006F00090E0ACE7B0E08D939C930C945904A6E78E
:10070000B0E00D911C91043F51E0150780E014F01A
:1007100009F081E08F93A6E7B0E00D911C910E3EA9
:1007200052E0150780E00CF481E09F9189238F93BC
:10073000ACE7B0E00D911C91003050E0150781E06E
:1007400009F080E09F918923882311F40C94D6034B
:10075000AAE9B0E0EAE0FCE10E94CB0BAEE9B0E030
:10076000EAE0FCE10E94CB0BEEE9F0E0A1EAB0E0A8
:100770000E94B40A0E94E80D0E94060BA1EAB0E0B4
:100780000E94F70AEAE0FCE10E94C30A0E94CA0A3A
:10079000A1EAB0E00E94BD0A0E94CA0A81E090E08E
:1007A000ACE7B0E08D939C930C945904A6E7B0E0BD
:1007B0000D911C910A3F50E0150780E014F009F0FC
:1007C00081E08F93A6E7B0E00D911C91043F51E0CA
:1007D000150780E00CF481E09F9189238F93ACE7AB
:1007E000B0E00D911C91003050E0150781E009F058
:1007F00080E09F918923882311F40C942D04AAE9A9
:10080000B0E0ECE0FCE10E94CB0BAEE9B0E0ECE044
:10081000FCE10E94CB0BEEE9F0E0A1EAB0E00E941F
:10082000B40A0E94E80D0E94060BA1EAB0E00E9403
:10083000F70AECE0FCE10E94C30A0E94CA0AA1EA9E
:10084000B0E00E94BD0A0E94CA0A81E090E0ACE7D5
:10085000B0E08D939C930C945904AAE9B0E0EEE0CB
:10086000FCE10E94CB0BAEE9B0E0EEE0FCE10E94BF
:10087000CB0BEEE9F0E0A1EAB0E00E94B40A0E94DE
:10088000E80D0E94060BA1EAB0E00E94F70AEEE034
:10089000FCE10E94C30A0E94CA0AA1EAB0E00E94D9
:1008A000BD0A0E94CA0A81E090E0ACE7B0E08D93F7
:1008B0009C930C94E806A4E7B0E00D911C910A3FCC
:1008C00050E0150780E014F009F081E08F93A4E771
:1008D000B0E00D911C91043F51E0150780E00CF44D
:1008E00081E09F9189238F93ACE7B0E00D911C913B
:1008F000003050E0150781E009F080E09F918923E6
:10090000882311F40C94B705A6E7B0E00D911C9173
:100910000E3E52E0150780E014F009F081E08F935D
:10092000A6E7B0E00D911C91083E53E0150780E06A
:100930000CF481E09F9189238F93ACE7B0E00D9197
:100940001C91003050E0150781E009F080E09F9194
:100950008923882311F40C94DB04AAE9B0E0E0E1D8
:10096000FCE10E94CB0BAEE9B0E0E0E1FCE10E94CB
:10097000CB0BEEE9F0E0A1EAB0E00E94B40A0E94DD
:10098000E80D0E94060BA1EAB0E00E94F70AE0E140
:10099000FCE10E94C30A0E94CA0AA1EAB0E00E94D8
:1009A000BD0A0E94CA0A81E090E0ACE7B0E08D93F6
:1009B0009C930C94B505A6E7B0E00D911C91043F03
:1009C00051E0150780E014F009F081E08F93A6E76D
:1009D000B0E00D911C910E3E52E0150780E00CF442
:1009E00081E09F9189238F93ACE7B0E00D911C913A
:1009F000003050E0150781E009F080E09F918923E5
:100A0000882311F40C943205AAE9B0E0E2E1FCE19C
:100A10000E94CB0BAEE9B0E0E2E1FCE10E94CB0B1F
:100A2000EEE9F0E0A1EAB0E00E94B40A0E94E80D0D
:100A30000E94060BA1EAB0E00E94F70AE2E1FCE1A5
:100A40000E94C30A0E94CA0AA1EAB0E00E94BD0A3D
:100A50000E94CA0A81E090E0ACE7B0E08D939C93DD
:100A60000C94B505A6E7B0E00D911C910A3F50E04B
:100A7000150780E014F009F081E08F93A6E7B0E05D
:100A80000D911C91043F51E0150780E00CF481E0CA
:100A90009F9189238F93ACE7B0E00D911C910030BA
:100AA00050E0150781E009F080E09F9189238823B9
:100AB00011F40C948905AAE9B0E0E4E1FCE10E949C
:100AC000CB0BAEE9B0E0E4E1FCE10E94CB0BEEE938
:100AD000F0E0A1EAB0E00E94B40A0E94E80D0E9492
:100AE000060BA1EAB0E00E94F70AE4E1FCE10E94F3
:100AF000C30A0E94CA0AA1EAB0E00E94BD0A0E948D
:100B0000CA0A81E090E0ACE7B0E08D939C930C942E
:100B1000B505AAE9B0E0E6E1FCE10E94CB0BAEE945
:100B2000B0E0E6E1FCE10E94CB0BEEE9F0E0A1EAE7
:100B3000B0E00E94B40A0E94E80D0E94060BA1EAF0
:100B4000B0E00E94F70AE6E1FCE10E94C30A0E94BD
:100B5000CA0AA1EAB0E00E94BD0A0E94CA0A81E066
:100B600090E0ACE7B0E08D939C930C94E806A6E788
:100B7000B0E00D911C910E3E52E0150780E014F09C
:100B800009F081E08F93A6E7B0E00D911C91083E3B
:100B900053E0150780E00CF481E09F9189238F9347
:100BA000ACE7B0E00D911C91003050E0150781E0FA
:100BB00009F080E09F918923882311F40C940E069C
:100BC000AAE9B0E0E8E1FCE10E94CB0BAEE9B0E0BD
:100BD000E8E1FCE10E94CB0BEEE9F0E0A1EAB0E035
:100BE0000E94B40A0E94E80D0E94060BA1EAB0E040
:100BF0000E94F70AE8E1FCE10E94C30A0E94CA0AC7
:100C0000A1EAB0E00E94BD0A0E94CA0A81E090E019
:100C1000ACE7B0E08D939C930C94E806A6E7B0E0B7
:100C20000D911C91043F51E0150780E014F009F08C
:100C300081E08F93A6E7B0E00D911C910E3E52E04B
:100C4000150780E00CF481E09F9189238F93ACE736
:100C5000B0E00D911C91003050E0150781E009F0E3
:100C600080E09F918923882311F40C946506AAE9FA
:100C7000B0E0EAE1FCE10E94CB0BAEE9B0E0EAE1D2
:100C8000FCE10E94CB0BEEE9F0E0A1EAB0E00E94AB
:100C9000B40A0E94E80D0E94060BA1EAB0E00E948F
:100CA000F70AEAE1FCE10E94C30A0E94CA0AA1EA2B
:100CB000B0E00E94BD0A0E94CA0A81E090E0ACE761
:100CC000B0E08D939C930C94E806A6E7B0E00D91FC
:100CD0001C910A3F50E0150780E014F009F081E014
:100CE0008F93A6E7B0E00D911C91043F51E01507EA
:100CF00080E00CF481E09F9189238F93ACE7B0E012
:100D00000D911C91003050E0150781E009F080E062
:100D10009F918923882311F40C94BC06AAE9B0E0C2
:100D2000ECE1FCE10E94CB0BAEE9B0E0ECE1FCE1D0
:100D30000E94CB0BEEE9F0E0A1EAB0E00E94B40A19
:100D40000E94E80D0E94060BA1EAB0E00E94F70A9B
:100D5000ECE1FCE10E94C30A0E94CA0AA1EAB0E0E9
:100D60000E94BD0A0E94CA0A81E090E0ACE7B0E0B0
:100D70008D939C930C94E806AAE9B0E0EEE1FCE1C7
:100D80000E94CB0BAEE9B0E0EEE1FCE10E94CB0BA0
:100D9000EEE9F0E0A1EAB0E00E94B40A0E94E80D9A
:100DA0000E94060BA1EAB0E00E94F70AEEE1FCE126
:100DB0000E94C30A0E94CA0AA1EAB0E00E94BD0ACA
:100DC0000E94CA0A81E090E0ACE7B0E08D939C936A
:100DD0000C94930AACE9B0E00D911C91043F51E0F2
:100DE000150780E014F009F081E08F93ACE9B0E0E2
:100DF0000D911C910E3E52E0150780E00CF481E04D
:100E00009F918923882311F40C94930AA4E7B0E0FE
:100E10000D911C910E3E52E0150780E014F009F090
:100E200081E08F93A4E7B0E00D911C91083E53E060
:100E3000150780E00CF481E09F9189238F93ACE744
:100E4000B0E00D911C91003050E0150781E009F0F1
:100E500080E09F918923882311F40C946208A6E70F
:100E6000B0E00D911C910E3E52E0150780E014F0A9
:100E700009F081E08F93A6E7B0E00D911C91083E48
:100E800053E0150780E00CF481E09F9189238F9354
:100E9000ACE7B0E00D911C91003050E0150781E007
:100EA00009F080E09F918923882311F40C94860730
:100EB000AAE9B0E0E0E2FCE10E94CB0BAEE9B0E0D1
:100EC000E0E2FCE10E94CB0BEEE9F0E0A1EAB0E049
:100ED0000E94B40A0E94E80D0E94060BA1EAB0E04D
:100EE0000E94F70AE0E2FCE10E94C30A0E94CA0ADB
:100EF000A1EAB0E00E94BD0A0E94CA0A81E090E027
:100F0000ACE7B0E08D939C930C946008A6E7B0E04A
:100F10000D911C91043F51E0150780E014F009F099
:100F200081E08F93A6E7B0E00D911C910E3E52E058
:100F3000150780E00CF481E09F9189238F93ACE743
:100F4000B0E00D911C91003050E0150781E009F0F0
:100F500080E09F918923882311F40C94DD07AAE98E
:100F6000B0E0E2E2FCE10E94CB0BAEE9B0E0E2E2ED
:100F7000FCE10E94CB0BEEE9F0E0A1EAB0E00E94B8
:100F8000B40A0E94E80D0E94060BA1EAB0E00E949C
:100F9000F70AE2E2FCE10E94C30A0E94CA0AA1EA3F
:100FA000B0E00E94BD0A0E94CA0A81E090E0ACE76E
:100FB000B0E08D939C930C946008A6E7B0E00D918F
:100FC0001C910A3F50E0150780E014F009F081E021
:100FD0008F93A6E7B0E00D911C91043F51E01507F7
:100FE00080E00CF481E09F9189238F93ACE7B0E01F
:100FF0000D911C91003050E0150781E009F080E070
:101000009F918923882311F40C943408AAE9B0E055
:10101000E4E2FCE10E94CB0BAEE9B0E0E4E2FCE1EB
:101020000E94CB0BEEE9F0E0A1EAB0E00E94B40A26
:101030000E94E80D0E94060BA1EAB0E00E94F70AA8
:10104000E4E2FCE10E94C30A0E94CA0AA1EAB0E0FD
:101050000E94BD0A0E94CA0A81E090E0ACE7B0E0BD
:101060008D939C930C946008AAE9B0E0E6E2FCE161
:101070000E94CB0BAEE9B0E0E6E2FCE10E94CB0BB4
:10108000EEE9F0E0A1EAB0E00E94B40A0E94E80DA7
:101090000E94060BA1EAB0E00E94F70AE6E2FCE13A
:1010A0000E94C30A0E94CA0AA1EAB0E00E94BD0AD7
:1010B0000E94CA0A81E090E0ACE7B0E08D939C9377
:1010C0000C94930AA4E7B0E00D911C91043F51E009
:1010D000150780E014F009F081E08F93A4E7B0E0F9
:1010E0000D911C910E3E52E0150780E00CF481E05A
:1010F0009F9189238F93ACE7B0E00D911C91003054
:1011000050E0150781E009F080E09F918923882352
:1011100011F40C94BE09A6E7B0E00D911C910E3EAF
:1011200052E0150780E014F009F081E08F93A6E704
:10113000B0E00D911C91083E53E0150780E00CF4DF
:1011400081E09F9189238F93ACE7B0E00D911C91D2
:10115000003050E0150781E009F080E09F9189237D
:10116000882311F40C94E208AAE9B0E0E8E2FCE17B
:101170000E94CB0BAEE9B0E0E8E2FCE10E94CB0BB1
:10118000EEE9F0E0A1EAB0E00E94B40A0E94E80DA6
:101190000E94060BA1EAB0E00E94F70AE8E2FCE137
:1011A0000E94C30A0E94CA0AA1EAB0E00E94BD0AD6
:1011B0000E94CA0A81E090E0ACE7B0E08D939C9376
:1011C0000C94BC09A6E7B0E00D911C91043F51E0DE
:1011D000150780E014F009F081E08F93A6E7B0E0F6
:1011E0000D911C910E3E52E0150780E00CF481E059
:1011F0009F9189238F93ACE7B0E00D911C91003053
:1012000050E0150781E009F080E09F918923882351
:1012100011F40C943909AAE9B0E0EAE2FCE10E9479
:10122000CB0BAEE9B0E0EAE2FCE10E94CB0BEEE9C9
:10123000F0E0A1EAB0E00E94B40A0E94E80D0E942A
:10124000060BA1EAB0E00E94F70AEAE2FCE10E9484
:10125000C30A0E94CA0AA1EAB0E00E94BD0A0E9425
:10126000CA0A81E090E0ACE7B0E08D939C930C94C7
:10127000BC09A6E7B0E00D911C910A3F50E01507AC
:1012800080E014F009F081E08F93A6E7B0E00D91C3
:101290001C91043F51E0150780E00CF481E09F9120
:1012A00089238F93ACE7B0E00D911C91003050E0A2
:1012B000150781E009F080E09F918923882311F4CC
:1012C0000C949009AAE9B0E0ECE2FCE10E94CB0B9F
:1012D000AEE9B0E0ECE2FCE10E94CB0BEEE9F0E01D
:1012E000A1EAB0E00E94B40A0E94E80D0E94060B39
:1012F000A1EAB0E00E94F70AECE2FCE10E94C30A16
:101300000E94CA0AA1EAB0E00E94BD0A0E94CA0A6D
:1013100081E090E0ACE7B0E08D939C930C94BC0925
:10132000AAE9B0E0EEE2FCE10E94CB0BAEE9B0E04E
:10133000EEE2FCE10E94CB0BEEE9F0E0A1EAB0E0C6
:101340000E94B40A0E94E80D0E94060BA1EAB0E0D8
:101350000E94F70AEEE2FCE10E94C30A0E94CA0A58
:10136000A1EAB0E00E94BD0A0E94CA0A81E090E0B2
:10137000ACE7B0E08D939C930C94930AA4E7B0E0A3
:101380000D911C910A3F50E0150780E014F009F020
:1013900081E08F93A4E7B0E00D911C91043F51E0F0
:1013A000150780E00CF481E09F9189238F93ACE7CF
:1013B000B0E00D911C91003050E0150781E009F07C
:1013C00080E09F918923882311F40C94930AA6E767
:1013D000B0E00D911C910E3E52E0150780E014F034
:1013E00009F081E08F93A6E7B0E00D911C91083ED3
:1013F00053E0150780E00CF481E09F9189238F93DF
:10140000ACE7B0E00D911C91003050E0150781E091
:1014100009F080E09F918923882311F40C943E0AFF
:10142000AAE9B0E0E0E3FCE10E94CB0BAEE9B0E05A
:10143000E0E3FCE10E94CB0BEEE9F0E0A1EAB0E0D2
:101440000E94B40A0E94E80D0E94060BA1EAB0E0D7
:101450000E94F70AE0E3FCE10E94C30A0E94CA0A64
:10146000A1EAB0E00E94BD0A0E94CA0A81E090E0B1
:10147000ACE7B0E08D939C930C94930AA6E7B0E0A0
:101480000D911C91043F51E0150780E014F009F024
:1014900081E08F93A6E7B0E00D911C910E3E52E0E3
:1014A000150780E00CF481E09F9189238F93ACE7CE
:1014B000B0E00D911C91003050E0150781E009F07B
:1014C00080E09F918923882311F40C94930AAAE960
:1014D000B0E0E2E3FCE10E94CB0BAEE9B0E0E2E376
:1014E000FCE10E94CB0BEEE9F0E0A1EAB0E00E9443
:1014F000B40A0E94E80D0E94060BA1EAB0E00E9427
:10150000F70AE2E3FCE10E94C30A0E94CA0AA1EAC8
:10151000B0E00E94BD0A0E94CA0A81E090E0ACE7F8
:10152000B0E08D939C93A1EAB0E00E94F30D082FE8
:10153000033011F00C94B00AE4E3FCE10E94FD0AD0
:101540000E94040BA1EAB0E00E94F70AE2E0F0E09A
:101550000E94180B0E94060BA1EAB0E088278C932A
:101560000C945E00F894FFCF8F938D918823E9F758
:1015700011978F910895A0E2B4E08D91882311F026
:101580000CD0FBCF08950E94150D802D11F005D0D1
:10159000FACF08958DE001D08AE09F939FB79F9383
:1015A000AF93BF930F937F93909164009230E1F3D8
:1015B000F89490916400939590936400992700911A
:1015C0006300A0E6B0E0A00FB91F8C930395023032
:1015D00009F4002700936300559A7F910F91BF9102
:1015E000AF919F919FBF9F910895A0E2B4E08D912C
:1015F000882311F06ED0FBCF08950E94150D802D29
:1016000011F067D0FACF089580EC69C081E067D00F
:1016100015D080E864C08FE7213039F08FEB22309D
:1016200021F08FE8233009F08FEC810F0C946F0BC1
:1016300088EE93E081D03197D9F7089583E0992718
:101640007BC08AEF90E00E949C0BA09AA19AA29A7C
:10165000A39AA49AA59AAD9885E090E00E949C0B6D
:10166000AC98A898A998AA9AAB9AAC9AEF93FF93D2
:10167000E1E1F1E00E94900BFF91EF91AC9859D01D
:10168000AC9AEF93FF93E1E1F1E00E94900BFF91A0
:10169000EF91AC984ED0AC9AEF93FF93E1E1F1E07B
:1016A0000E94900BFF91EF91AC9843D0AB98AC9A0D
:1016B000EF93FF93E1E1F1E00E94900BFF91EF9136
:1016C000AC9837D088E20BD08EE009D086E007D006
:1016D0000895AD9A829505D004D02BD00895AD9889
:1016E000F9CF859510F4AB9A01C0AB98859510F4AD
:1016F000AA9A01C0AA98859510F4A99A01C0A99840
:10170000859510F4A89A01C0A898AC9AEF93FF931E
:10171000E1E1F1E00E94900BFF91EF91AC98089508
:101720003197F1F70895689462F80895E89462F8A3
:10173000089581E090E000C0EF93FF93EE27E82B3F
:10174000E92B31F0EDECFAE03197F1F70197D1F7A1
:10175000FF91EF910895B7FE089590E8B91611F43E
:10176000D0FE08959FEFD91AE90AF90A09F4039502
:101770000895652F90E8440F551F5927990F4795F5
:101780006078102F90E8FF0C001F0927990FF7943D
:101790001078003808950E94150D0D920020D9F799
:1017A0000895369A3699FECF369A3699FECF84B18F
:1017B00095B108953DD0992711278F2D880F80E886
:1017C000F82A802F881F08F41FEF41F08F57082F49
:1017D00007FD04C0003240F08FEF01C08827982F2A
:1017E000D82EE82EF82E09C08FE1801B082FF69422
:1017F000E794D79497950A95D1F7112351F09095D6
:10180000D094E094F09481E0980F8827D81EE81EC9
:10181000F81E0F2DFE2CED2CD92E0895D094E094B7
:10182000F09491E0D90E9927E91EF91E10950895BC
:10183000D190E190F19001910895219131914191E0
:1018400051910895FF0C90E89027110F9795F79408
:10185000092F0895102FBD2CDE2CEF2CF02E112314
:101860004AF4B094D094E094F0949FEFB91AD90A56
:10187000E90AF90A0EE1FF2039F4FE2CED2CDB2CED
:10188000BB240850C2F758C032F00A95BB0CDD1CCF
:10189000EE1CFF1CF9CF5FDFD5CF502F2D2D3E2D35
:1018A0004F2D612F08952DEC3CEC4CEC5DE3662749
:1018B0000FC0BEDFF2DFDD24EE2490E8F92E0FE347
:1018C00007C0BBDF05C02227332740E251E466276B
:1018D000552351F1002381F14CDF71F11627005897
:1018E00050580894050B18F407FD03C025C007FDE8
:1018F00023C0469537952795F694E794D79422D040
:10190000FF202AF0DD0CEE1CFF1C015073F09D2D12
:10191000969548F0DD203AF4EE202AF491E0D90EB5
:101920009927E91EF91E8ECF07C09FE7092FF92AD4
:101930009FEFD92EE92E0895DD24EE24FF24002701
:10194000112708959F929924AA24BB2488E1D216D6
:10195000E306F40628F0D21AE30AF40A089401C058
:101960008894991CAA1CBB1CDD0CEE1CFF1C8A95DC
:1019700071F7D92CEA2CFB2C9F9008950AF045D0E2
:1019800061CF5FE322273327442701C056DFF1DE12
:101990005038B1F3003899F3902F951B8BF312F464
:1019A00034D0FACF983118F02227332744279830C3
:1019B00028F0232F342F44279850F9CF992329F06A
:1019C0004695379527959A95D9F7912F962742F006
:1019D00014D0B0F6F794E794D7940F5F8BF6A5CFA9
:1019E00010D051F008F41ADFFF2052F2DD0CEE1C8B
:1019F000FF1C0150CBF799CF9FCFD20EE31EF41EF0
:101A00000895D21AE30AF40A0895DF92EF92FF9242
:101A10000F931F93D22EE32EF42E052F162F6F91C6
:101A20005F914F913F912F910895C8953196002075
:101A30000895FBDF202DF9DF302DF7DF402DF5DF96
:101A4000502D089591E005C092E003C094E001C0DC
:101A500098E0EBDF0D929A95E1F708957F930F934D
:101A6000AF93BF938F939F938FB78F9380916900AC
:101A700002E0081B21F49CB10E94930B12C000915C
:101A80006800A5E6B0E077279CB1A00FB71F9C9334
:101A90008395809369000395023009F40027009331
:101AA00068008F918FBF9F918F91BF91AF910F91E0
:101AB0007F9118957F93AF93BF938F939F938FB729
:101AC0008F9390916400992399F09A959093640074
:101AD0009927A0E6B0E080916200A80FB91F9C9101
:101AE0008395823009F48827809362009CB901C0F5
:101AF00055988F918FBF9F918F91BF91AF917F919B
:101B00001895000F111F221F331F0895009510957F
:101B1000209530950F5F1F4F2F4F3F4F0895019134
:101B200010810EC001911191219130810BC0019162
:101B3000108117FF05C03FEF2FEF04C00081112770
:101B40002227332737FF03C0E1DF8DE28D93CF9348
:101B5000DF93CF92DF92EF92AA24BB24CC24DD2422
:101B6000EE2440E2CAE0DD2755E093E38881890F47
:101B700087FD9F7083FD907F891B89935A95A9F7F4
:101B8000C0DFAA1CBB1CCC1CDD1CEE1C4A9551F707
:101B9000E894EFE0FF2782910ED0EB30E0F71EF0E3
:101BA00068948A2D0CD088278D93EF90DF90CF908A
:101BB000DF91CF910895982F829501D0892F8F7052
:101BC000805D26F0803309F4089568948D9308951C
:101BD00081918D938823E1F7089594E081918D930D
:101BE0009A95E1F708958FEF83959D919923E1F7F9
:101BF00008950000F0410000000052657365740014
:101C000041004200430044004500460047004800B0
:101C100049004A004B004C004D004E004F00500060
:101C20005100520053005400550056005700580010
:101C300059005A00436C656172696E672052637681
:021C400064003E
:00000001FF
