:100000000C942A001895000018950000189500001F
:10001000189500001895000018950000189500002C
:10002000189500001895000018950000189500001C
:10003000189500001895000018950000189500000C
:1000400018950000189500001895000018950000FC
:10005000189500008FE58DBFC0E4E8E34E2E84E0E4
:100060008EBFD4E0F4E05F2EEEEFF3E0A0E6B0E068
:1000700088278D933197E9F70E94920066240E94A9
:100080008400E0E4F2E00E947D00E1E0F0E00E9404
:1000900089008CE10E94E000E4E4F2E00E947D002F
:1000A000E1E0F0E00E94890086E090E0A0E6B0E0A8
:1000B0008D939C93A0E6B0E00D911C910C3050E024
:1000C00015071CF011F00C94720088E10E94E0000A
:1000D000E1E0F0E00E948900A0E6B0E00E94760036
:1000E0000C945A000C943F00F894FFCFED91FC91D2
:1000F000EF5FFF4FFC93EE9308950E941C01802D4B
:1001000011F058D0FACF089581E05AD008D080E895
:1001100057C088EE93E081D03197D9F7089583E0F6
:1001200099277BC08AEF90E00E940D01A09AA19AC6
:10013000A29AA39AA49AA59AAD9885E090E00E940D
:100140000D01AC98A898A998AA9AAB9AAC9AEF938B
:10015000FF93E4ECF0E00E940101FF91EF91AC9875
:1001600059D0AC9AEF93FF93E4ECF0E00E940101C8
:10017000FF91EF91AC984ED0AC9AEF93FF93E4ECE3
:10018000F0E00E940101FF91EF91AC9843D0AB9851
:10019000AC9AEF93FF93E4ECF0E00E940101FF9131
:1001A000EF91AC9837D088E20BD08EE009D086E092
:1001B00007D00895AD9A829505D004D02BD008952C
:1001C000AD98F9CF859510F4AB9A01C0AB988595A1
:1001D00010F4AA9A01C0AA98859510F4A99A01C0B2
:1001E000A998859510F4A89A01C0A898AC9AEF93A5
:1001F000FF93E4ECF0E00E940101FF91EF91AC98D5
:1002000008953197F1F70895689462F80895E89495
:1002100062F8089581E090E000C0EF93FF93EE272D
:10022000E82BE92B31F0E0EDF7E03197F1F701979A
:10023000D1F7FF91EF910895C89531960020089568
:06024000432E00004E00F9
:00000001FF
