:100000000C942A001895000018950000189500001F
:10001000189500001895000018950000189500002C
:10002000189500001895000018950000189500001C
:10003000189500001895000018950000189500000C
:1000400018950000189500001895000018950000FC
:10005000189500008FE58DBFC0E4E8E34E2E84E0E4
:100060008EBFD4E0F4E05F2EEEEFF3E0A0E6B0E068
:1000700088278D933197E9F70E949B00662486E0DC
:1000800086B980E487B9379A339A0E948000E2E308
:10009000F3E00E947900E1E0F0E00E949200BA9A59
:1000A000B89AB99A0E9480008FE711E00E948F00F1
:1000B00080E4806487B90E942501AEE6B0E08D93AC
:1000C0009C93A0E2B4E0EEE6F0E00E9440010E94C2
:1000D00071008CE291E00E9416010C945200F89499
:1000E000FFCFA0E2B4E08D91882311F06CD0FBCF5C
:1000F00008950E942E01802D11F065D0FACF089549
:1001000081E067D015D080E864C08FE7213039F0F6
:100110008FEB223021F08FE8233009F08FEC810F34
:100120000C94E90088EE93E081D03197D9F70895D7
:1001300083E099277BC08AEF90E00E941601A09A85
:10014000A19AA29AA39AA49AA59AAD9885E090E064
:100150000E941601AC98A898A998AA9AAB9AAC9A52
:10016000EF93FF93E4ECF0E00E940A01FF91EF911E
:10017000AC9859D0AC9AEF93FF93E4ECF0E00E9476
:100180000A01FF91EF91AC984ED0AC9AEF93FF9398
:10019000E4ECF0E00E940A01FF91EF91AC9843D0AB
:1001A000AB98AC9AEF93FF93E4ECF0E00E940A0165
:1001B000FF91EF91AC9837D088E20BD08EE009D058
:1001C00086E007D00895AD9A829505D004D02BD053
:1001D0000895AD98F9CF859510F4AB9A01C0AB980E
:1001E000859510F4AA9A01C0AA98859510F4A99A49
:1001F00001C0A998859510F4A89A01C0A898AC9A56
:10020000EF93FF93E4ECF0E00E940A01FF91EF917D
:10021000AC9808953197F1F70895689462F80895BD
:10022000E89462F8089581E090E000C0EF93FF93B6
:10023000EE27E82BE92B31F0E0EDF7E03197F1F70D
:100240000197D1F7FF91EF910895369A3699FECF35
:10025000369A3699FECF84B195B10895C8953196F6
:1002600000200895000F111F221F331F08950095CD
:100270001095209530950F5F1F4F2F4F3F4F0895DA
:10028000019110810EC001911191219130810BC01B
:100290000191108117FF05C03FEF2FEF04C00081CF
:1002A00011272227332737FF03C0E1DF8DE28D932B
:1002B000CF93DF93CF92DF92EF92AA24BB24CC247A
:1002C000DD24EE2440E2CAE0DD2755E093E3888197
:1002D000890F87FD9F7083FD907F891B89935A95B5
:1002E000A9F7C0DFAA1CBB1CCC1CDD1CEE1C4A9568
:1002F00051F7E894EFE0FF2782910ED0EB30E0F762
:100300001EF068948A2D0CD088278D93EF90DF9093
:10031000CF90DF91CF910895982F829501D0892FAA
:100320008F70805D26F0803309F4089568948D9372
:0803300008956363636300009C
:00000001FF
