:100000000C942A001895000018950000189500001F
:10001000189500001895000018950000189500002C
:10002000189500001895000018950000189500001C
:10003000189500001895000018950000189500000C
:1000400018950000189500001895000018950000FC
:10005000189500008FE58DBFC0E4E8E34E2E84E0E4
:100060008EBFD4E0F4E05F2EEEEFF3E0A0E6B0E068
:1000700088278D933197E9F76624BA9AB89AB99A86
:10008000C09AE5E0F0E00E945600C098C19AEAE00C
:10009000F0E00E945600C198C29AEFE0F0E00E94A2
:1000A0005600C2980C944000F894FFCF88EE93E07D
:1000B0000CD03197D9F708953197F1F708956894E6
:1000C00062F80895E89462F80895EF93FF93EE279D
:1000D000E82BE92B31F0E0EDF7E03197F1F70197EC
:0800E000D1F7FF91EF910895A3
:00000001FF
