:100000000C942A001895000018950000189500001F
:10001000189500001895000018950000189500002C
:100020001895000018950000189500000C94CF0555
:100030000C94FB0518950000189500001895000019
:1000400018950000189500001895000018950000FC
:10005000189500008FE58DBFC0E4E8E34E2E84E0E4
:100060008EBFD4E0F4E05F2EEEEFF3E0A0E6B0E068
:1000700088278D933197E9F787E489B980E080BDBF
:1000800088E18AB90E94C2036624579A7894B89A84
:10009000B99ABA9A8F9A0E94A70386E086B980EC33
:1000A00087B9379A0E94A703E2E3FDE00E94A0030C
:1000B000E1E0F0E00E94B9030E94A70380EC806CAD
:1000C00087B90E947204AAE6B0E08D939C9383ECFA
:1000D000806C87B90E947204ACE6B0E08D939C936B
:1000E00082EC806C87B90E947204AEE6B0E08D931A
:1000F0009C93A4E8B0E00D911C9141E050E0040F06
:10010000151FA4E8B0E00D931C93EAE6F0E0D1904F
:10011000E080FF2400270E94CB040E94EE04E6E862
:10012000F0E00E94B9040E946805EDE0F0E0A6E866
:10013000B0E00E948906ECE6F0E0D190E080FF2478
:1001400000270E94CB040E94EE04EAE8F0E00E943F
:10015000B9040E946805EDE0F0E0AAE8B0E00E9472
:100160008906EEE6F0E0D190E080FF2400270E94AF
:10017000CB040E94EE04EEE8F0E00E94B9040E9475
:100180006805EDE0F0E0AEE8B0E00E948906A4E882
:10019000B0E00D911C910E3150E0150711F00C9458
:1001A0002801EAE2FDE00E94BA05E6E8F0E00E94DC
:1001B000B9040E940905EDE0F0E00E947B04AAE981
:1001C000B0E0EE0C000FE794DD92EC92EAE2FDE085
:1001D0000E94BA05EAE8F0E00E94B9040E9409050D
:1001E000EDE0F0E00E947B04A4E7B0E0EE0C000F2D
:1001F000E794DD92EC92EAE2FDE00E94BA05EEE8B7
:10020000F0E00E94B9040E940905EDE0F0E00E94D0
:100210007B04A6E7B0E0EE0C000FE794DD92EC92D1
:1002200080E090E0A4E8B0E08D939C93A6E8B0E075
:10023000EEE2FDE00E94C705AAE8B0E0EEE2FDE0D4
:100240000E94C705AEE8B0E0EEE2FDE00E94C705FF
:1002500088E290E00E943D048FEB11E00E94B6031B
:10026000A0E2B4E0E6E7F0E00E9438060E949803BE
:100270008FEB16E00E94B603A0E2B4E0EAE9F0E0FA
:100280000E9438060E9498038FEB1BE00E94B60381
:10029000A0E2B4E0E4E7F0E00E9438060E94980390
:1002A0008FE711E00E94B603AAE9B0E00D911C911E
:1002B000083E53E0150780E014F009F081E08F93C9
:1002C000A4E7B0E00D911C91083E53E0150780E0D3
:1002D00014F009F081E09F9189238F93A6E7B0E0A5
:1002E0000D911C91043853E0150780E014F009F0DB
:1002F00081E09F918923882311F40C9489010E9445
:10030000A70380E090E0ACE7B0E08D939C930C9461
:100310008003AAE9B0E00D911C91003253E015076B
:1003200080E014F009F081E08F93AAE9B0E00D912C
:100330001C91043853E0150780E00CF481E09F9194
:100340008923882311F40C94DE01A4E7B0E00D9119
:100350001C91003253E0150780E014F009F081E0B1
:100360008F93A4E7B0E00D911C91043853E015077A
:1003700080E00CF481E09F918923882311F40C9490
:10038000DC01A6E7B0E00D911C91043853E015079D
:100390000CF402C00C94DC01E8E3FDE00E94A00331
:1003A000E2E0F0E00E94B903AFE9B0E00E949103FF
:1003B000E8E3FDE00E946C040C948003AAE9B0E03D
:1003C0000D911C910C3B52E0150780E014F009F0F0
:1003D00081E08F93AAE9B0E00D911C91003253E0C7
:1003E000150780E00CF481E09F918923882311F4A4
:1003F0000C948E02A4E7B0E00D911C91043F51E0F3
:10040000150780E014F009F081E08F93A4E7B0E0D5
:100410000D911C91083552E0150780E00CF481E045
:100420009F918923882311F40C944402A6E7B0E03D
:100430000D911C91063B53E0150780E014F009F084
:1004400081E08F93A6E7B0E00D911C910F3F53E040
:10045000150780E00CF481E09F918923882311F433
:100460000C944202EAE3FDE00E94A003E2E0F0E027
:100470000E94B903AFE9B0E00E949103EAE3FDE016
:100480000E946C040C948C02A4E7B0E00D911C91C6
:10049000083552E0150780E014F009F081E08F93F1
:1004A000A4E7B0E00D911C910C3B52E0150780E0F1
:1004B0000CF481E09F918923882311F40C948C0221
:1004C000A6E7B0E00D911C91063B53E0150780E0D4
:1004D00014F009F081E08F93A6E7B0E00D911C9134
:1004E0000F3F53E0150780E00CF481E09F918923D2
:1004F000882311F40C948C02ECE3FDE00E94A0032D
:10050000E2E0F0E00E94B903AFE9B0E00E9491039D
:10051000ECE3FDE00E946C040C948003AAE9B0E0D7
:100520000D911C91083552E0150780E014F009F098
:1005300081E08F93AAE9B0E00D911C910C3B52E051
:10054000150780E00CF481E09F918923882311F442
:100550000C94F402A4E7B0E00D911C91003253E03A
:10056000150780E014F009F081E08F93A4E7B0E074
:100570000D911C91043853E0150780E00CF481E0E4
:100580009F918923882311F40C94F202A6E7B0E02E
:100590000D911C91063B53E0150780E014F009F023
:1005A00081E08F93A6E7B0E00D911C910F3F53E0DF
:1005B000150780E00CF481E09F918923882311F4D2
:1005C0000C94F202EEE3FDE00E94A003E2E0F0E012
:1005D0000E94B903AFE9B0E00E949103EEE3FDE0B1
:1005E0000E946C040C948003AAE9B0E00D911C9168
:1005F000043F51E0150780E014F009F081E08F938B
:10060000AAE9B0E00D911C91083552E0150780E091
:100610000CF481E09F918923882311F40C948003CA
:10062000A4E7B0E00D911C91003253E0150780E083
:1006300014F009F081E08F93A4E7B0E00D911C91D4
:10064000043853E0150780E00CF481E09F91892382
:10065000882311F40C944903A6E7B0E00D911C9196
:10066000043853E015070CF402C00C944703E0E48F
:10067000FDE00E94A003E2E0F0E00E94B903AFE9D0
:10068000B0E00E949103E0E4FDE00E946C040C9451
:100690008003A4E7B0E00D911C91083552E01507E6
:1006A00080E014F009F081E08F93A4E7B0E00D91B1
:1006B0001C910C3B52E0150780E00CF481E09F9107
:1006C0008923882311F40C948003A6E7B0E00D91F0
:1006D0001C91043853E015070CF402C00C948003FD
:1006E000E2E4FDE00E94A003E2E0F0E00E94B90332
:1006F000AFE9B0E00E949103E2E4FDE00E946C04E7
:10070000AFE9B0E00E948F06082F063011F00C947C
:100710008D03AFE9B0E088278C930C945E00F894C9
:10072000FFCF8F938D918823E9F711978F910895CB
:10073000A0E2B4E08D91882311F06CD0FBCF089536
:100740000E94B605802D11F065D0FACF089581E0A2
:1007500067D015D080E864C08FE7213039F08FEB87
:10076000223021F08FE8233009F08FEC810F0C94B8
:10077000100488EE93E081D03197D9F7089583E093
:1007800099277BC08AEF90E00E943D04A09AA19A2D
:10079000A29AA39AA49AA59AAD9885E090E00E94A7
:1007A0003D04AC98A898A998AA9AAB9AAC9AEF93F2
:1007B000FF93E1E1F1E00E943104FF91EF91AC98E9
:1007C00059D0AC9AEF93FF93E1E1F1E00E9431043C
:1007D000FF91EF91AC984ED0AC9AEF93FF93E1E18B
:1007E000F1E00E943104FF91EF91AC9843D0AB98B7
:1007F000AC9AEF93FF93E1E1F1E00E943104FF91A5
:10080000EF91AC9837D088E20BD08EE009D086E02B
:1008100007D00895AD9A829505D004D02BD00895C5
:10082000AD98F9CF859510F4AB9A01C0AB9885953A
:1008300010F4AA9A01C0AA98859510F4A99A01C04B
:10084000A998859510F4A89A01C0A898AC9AEF933E
:10085000FF93E1E1F1E00E943104FF91EF91AC9848
:1008600008953197F1F70895689462F80895E8942F
:1008700062F8089581E090E000C0EF93FF93EE27C7
:10088000E82BE92B31F0EDECFAE03197F1F7019725
:10089000D1F7FF91EF910895B7FE089590E8B9164A
:1008A00011F4D0FE08959FEFD91AE90AF90A09F464
:1008B00003950895652F90E8440F551F5927990F08
:1008C00047956078102F90E8FF0C001F0927990FBB
:1008D000F7941078003808950E94B6050D92002014
:1008E000D9F70895369A3699FECF369A3699FECFC3
:1008F00084B195B108953DD0992711278F2D880F88
:1009000080E8F82A802F881F08F41FEF41F08F57E6
:10091000082F07FD04C0003240F08FEF01C0882788
:10092000982FD82EE82EF82E09C08FE1801B082FB3
:10093000F694E794D79497950A95D1F7112351F03F
:100940009095D094E094F09481E0980F8827D81E79
:10095000E81EF81E0F2DFE2CED2CD92E0895D094F4
:10096000E094F09491E0D90E9927E91EF91E1095B4
:100970000895D190E190F1900191089521913191E4
:10098000419151910895FF0C90E89027110F979590
:10099000F794092F0895102FBD2CDE2CEF2CF02E8C
:1009A00011234AF4B094D094E094F0949FEFB91AD4
:1009B000D90AE90AF90A0EE1FF2039F4FE2CED2CE0
:1009C000DB2CBB240850C2F758C032F00A95BB0C90
:1009D000DD1CEE1CFF1CF9CF5FDFD5CF502F2D2D76
:1009E0003E2D4F2D612F08952DEC3CEC4CEC5DE33A
:1009F00066270FC0BEDFF2DFDD24EE2490E8F92E7B
:100A00000FE307C0BBDF05C02227332740E251E4D4
:100A10006627552351F1002381F14CDF71F1162730
:100A2000005850580894050B18F407FD03C025C062
:100A300007FD23C0469537952795F694E794D794FC
:100A400022D0FF202AF0DD0CEE1CFF1C015073F0B9
:100A50009D2D969548F0DD203AF4EE202AF491E0A1
:100A6000D90E9927E91EF91E8ECF07C09FE7092FDF
:100A7000F92A9FEFD92EE92E0895DD24EE24FF24D4
:100A80000027112708959F929924AA24BB2488E166
:100A9000D216E306F40628F0D21AE30AF40A089400
:100AA00001C08894991CAA1CBB1CDD0CEE1CFF1C09
:100AB0008A9571F7D92CEA2CFB2C9F9008950AF0A7
:100AC00045D061CF5FE322273327442701C056DF9B
:100AD000F1DE5038B1F3003899F3902F951B8BF36A
:100AE00012F434D0FACF983118F022273327442754
:100AF000983028F0232F342F44279850F9CF99238A
:100B000029F04695379527959A95D9F7912F9627ED
:100B100042F014D0B0F6F794E794D7940F5F8BF6B9
:100B2000A5CF10D051F008F41ADFFF2052F2DD0CEF
:100B3000EE1CFF1C0150CBF799CF9FCFD20EE31EC6
:100B4000F41E0895D21AE30AF40A0895DF92EF9290
:100B5000FF920F931F93D22EE32EF42E052F162F04
:100B60006F915F914F913F912F910895C895319664
:100B700000200895FBDF202DF9DF302DF7DF402D19
:100B8000F5DF502D089591E005C092E003C094E098
:100B900001C098E0EBDF0D929A95E1F708957F93FD
:100BA0000F93AF93BF938F939F938FB78F93809142
:100BB000690002E0081B21F49CB10E94340412C0B9
:100BC00000916800A5E6B0E077279CB1A00FB71FA1
:100BD0009C938395809369000395023009F4002764
:100BE000009368008F918FBF9F918F91BF91AF91BC
:100BF0000F917F9118957F93AF93BF938F939F939E
:100C00008FB78F9390916400992399F09A95909360
:100C100064009927A0E6B0E080916200A80FB91F98
:100C20009C918395823009F48827809362009CB957
:100C300001C055988F918FBF9F918F91BF91AF91B8
:100C40007F911895000F111F221F331F08950095E3
:100C50001095209530950F5F1F4F2F4F3F4F0895F0
:100C6000019110810EC001911191219130810BC031
:100C70000191108117FF05C03FEF2FEF04C00081E5
:100C800011272227332737FF03C0E1DF8DE28D9341
:100C9000CF93DF93CF92DF92EF92AA24BB24CC2490
:100CA000DD24EE2440E2CAE0DD2755E093E38881AD
:100CB000890F87FD9F7083FD907F891B89935A95CB
:100CC000A9F7C0DFAA1CBB1CCC1CDD1CEE1C4A957E
:100CD00051F7E894EFE0FF2782910ED0EB30E0F778
:100CE0001EF068948A2D0CD088278D93EF90DF90AA
:100CF000CF90DF91CF910895982F829501D0892FC1
:100D00008F70805D26F0803309F4089568948D9388
:100D1000089594E081918D939A95E1F708958FEF6E
:100D200083959D919923E1F708950000F04100001B
:100D3000000052657365740045004700460044009A
:040D4000410042002C
:00000001FF
