:100000000C942A001895000018950000189500001F
:10001000189500001895000018950000189500002C
:10002000189500001895000018950000189500001C
:10003000189500001895000018950000189500000C
:1000400018950000189500001895000018950000FC
:10005000189500008FE58DBFC0E4E8E34E2E84E0E4
:100060008EBFD4E0F4E05F2EEEEFF3E0A0E6B0E068
:1000700088278D933197E9F70E940802662486E06D
:1000800086B980EC87B9379A0E94ED01E0E0F9E08B
:100090000E94E601E1E0F0E00E94FF0180EC806C4C
:1000A00087B90E94B202A0E6B0E08D939C9382ECE7
:1000B000806C87B90E94B202A2E6B0E08D939C9357
:1000C00083EC806C87B90E94B202A4E6B0E08D9305
:1000D0009C9384EC806C87B90E94B202A6E6B0E0E3
:1000E0008D939C9385EC806C87B90E94B202A8E640
:1000F000B0E08D939C93A6E7B0E00D911C9141E098
:1001000050E0040F151FA6E7B0E00D931C93E0E646
:10011000F0E0D190E080FF2400270E940B030E94B2
:100120002E03E8E7F0E00E94F9020E94A803EDE048
:10013000F0E0A8E7B0E00E947604E2E6F0E0D190BB
:10014000E080FF2400270E940B030E942E03ECE7AF
:10015000F0E00E94F9020E94A803EDE0F0E0ACE7B5
:10016000B0E00E947604E4E6F0E0D190E080FF2465
:1001700000270E940B030E942E03E0E8F0E00E949B
:10018000F9020E94A803EDE0F0E0A0E8B0E00E94D0
:100190007604E6E6F0E0D190E080FF2400270E949C
:1001A0000B030E942E03E4E8F0E00E94F9020E9493
:1001B000A803EDE0F0E0A4E8B0E00E947604E8E6F1
:1001C000F0E0D190E080FF2400270E940B030E9402
:1001D0002E03E8E8F0E00E94F9020E94A803EDE097
:1001E000F0E0A8E8B0E00E947604A6E7B0E00D9148
:1001F0001C910E3150E0150711F00C948C01E8EFC2
:10020000F8E00E94FA03E8E7F0E00E94F9020E9499
:100210004903EDE0F0E00E94BB02ACE8B0E0EE0C78
:10022000000FE794DD92EC92E8EFF8E00E94FA0309
:10023000ECE7F0E00E94F9020E944903EDE0F0E0F3
:100240000E94BB02AAE6B0E0EE0C000FE794DD923C
:10025000EC92E8EFF8E00E94FA03E0E8F0E00E9498
:10026000F9020E944903EDE0F0E00E94BB02ACE617
:10027000B0E0EE0C000FE794DD92EC92E8EFF8E0CE
:100280000E94FA03E4E8F0E00E94F9020E944903A8
:10029000EDE0F0E00E94BB02AEE6B0E0EE0C000F35
:1002A000E794DD92EC92E8EFF8E00E94FA03E8E8C8
:1002B000F0E00E94F9020E944903EDE0F0E00E94A4
:1002C000BB02A0E7B0E0EE0C000FE794DD92EC92E9
:1002D00080E090E0A6E7B0E08D939C93A8E7B0E0C3
:1002E000ECEFF8E00E940704ACE7B0E0ECEFF8E0D8
:1002F0000E940704A0E8B0E0ECEFF8E00E940704D9
:10030000A4E8B0E0ECEFF8E00E940704A8E8B0E051
:10031000ECEFF8E00E9407048FE711E00E94FC0177
:100320000E94ED01E6E0F9E00E94E601A0E2B4E0FF
:10033000ECE8F0E00E9425040E94DE018FE719E05E
:100340000E94FC01A0E2B4E0EAE6F0E00E9425048D
:100350000E94DE018FE71DE00E94FC01A0E2B4E0F4
:10036000ECE6F0E00E9425040E94DE018FEB11E034
:100370000E94FC01EAE0F9E00E94E601A0E2B4E09C
:10038000EEE6F0E00E9425040E94DE018FEB17E00C
:100390000E94FC01EEE0F9E00E94E601A0E2B4E078
:1003A000E0E7F0E00E9425040E94DE0182E390E095
:1003B0000E9483020C944E00F894FFCFA0E2B4E0B8
:1003C0008D91882311F06CD0FBCF08950E94F60325
:1003D000802D11F065D0FACF089581E067D015D057
:1003E00080E864C08FE7213039F08FEB223021F0B4
:1003F0008FE8233009F08FEC810F0C94560288EEC1
:1004000093E081D03197D9F7089583E099277BC095
:100410008AEF90E00E948302A09AA19AA29AA39ADE
:10042000A49AA59AAD9885E090E00E948302AC98CA
:10043000A898A998AA9AAB9AAC9AEF93FF93E4EC88
:10044000F0E00E947702FF91EF91AC9859D0AC9AFE
:10045000EF93FF93E4ECF0E00E947702FF91EF91BD
:10046000AC984ED0AC9AEF93FF93E4ECF0E00E948E
:100470007702FF91EF91AC9843D0AB98AC9AEF9391
:10048000FF93E4ECF0E00E947702FF91EF91AC98CB
:1004900037D088E20BD08EE009D086E007D00895EF
:1004A000AD9A829505D004D02BD00895AD98F9CFA0
:1004B000859510F4AB9A01C0AB98859510F4AA9A73
:1004C00001C0AA98859510F4A99A01C0A9988595AC
:1004D00010F4A89A01C0A898AC9AEF93FF93E4ECAB
:1004E000F0E00E947702FF91EF91AC980895319768
:1004F000F1F70895689462F80895E89462F8089511
:1005000081E090E000C0EF93FF93EE27E82BE92B0A
:1005100031F0E0EDF7E03197F1F70197D1F7FF9176
:10052000EF910895B7FE089590E8B91611F4D0FE42
:1005300008959FEFD91AE90AF90A09F40395089575
:10054000652F90E8440F551F5927990F47956078FC
:10055000102F90E8FF0C001F0927990FF7941078CF
:1005600000380895369A3699FECF369A3699FECFDE
:1005700084B195B108953DD0992711278F2D880F0B
:1005800080E8F82A802F881F08F41FEF41F08F576A
:10059000082F07FD04C0003240F08FEF01C088270C
:1005A000982FD82EE82EF82E09C08FE1801B082F37
:1005B000F694E794D79497950A95D1F7112351F0C3
:1005C0009095D094E094F09481E0980F8827D81EFD
:1005D000E81EF81E0F2DFE2CED2CD92E0895D09478
:1005E000E094F09491E0D90E9927E91EF91E109538
:1005F0000895D190E190F190019108952191319168
:10060000419151910895FF0C90E89027110F979513
:10061000F794092F0895102FBD2CDE2CEF2CF02E0F
:1006200011234AF4B094D094E094F0949FEFB91A57
:10063000D90AE90AF90A0EE1FF2039F4FE2CED2C63
:10064000DB2CBB240850C2F758C032F00A95BB0C13
:10065000DD1CEE1CFF1CF9CF65DFD5CF502F2D2DF3
:100660003E2D4F2D612F08952DEC3CEC4CEC5DE3BD
:1006700066270FC0BEDFF2DFDD24EE2490E8F92EFE
:100680000FE307C0BBDF05C02227332740E251E458
:100690006627552351F1002381F152DF71F11627AE
:1006A000005850580894050B18F407FD03C025C0E6
:1006B00007FD23C0469537952795F694E794D79480
:1006C00022D0FF202AF0DD0CEE1CFF1C015073F03D
:1006D0009D2D969548F0DD203AF4EE202AF491E025
:1006E000D90E9927E91EF91E8ECF07C09FE7092F63
:1006F000F92A9FEFD92EE92E0895DD24EE24FF2458
:100700000027112708959F929924AA24BB2488E1E9
:10071000D216E306F40628F0D21AE30AF40A089483
:1007200001C08894991CAA1CBB1CDD0CEE1CFF1C8C
:100730008A9571F7D92CEA2CFB2C9F9008950AF02A
:1007400045D061CF5FE322273327442701C056DF1E
:10075000F7DE5038B1F3003899F3902F951B8BF3E7
:1007600012F434D0FACF983118F0222733274427D7
:10077000983028F0232F342F44279850F9CF99230D
:1007800029F04695379527959A95D9F7912F962771
:1007900042F014D0B0F6F794E794D7940F5F8BF63D
:1007A000A5CF10D051F008F41ADFFF2052F2DD0C73
:1007B000EE1CFF1C0150CBF799CF9FCFD20EE31E4A
:1007C000F41E0895D21AE30AF40A0895DF92EF9214
:1007D000FF920F931F93D22EE32EF42E052F162F88
:1007E0006F915F914F913F912F910895C8953196E8
:1007F00000200895FBDF202DF9DF302DF7DF402D9D
:10080000F5DF502D089591E005C092E003C094E01B
:1008100001C098E0EBDF0D929A95E1F70895000F83
:10082000111F221F331F08950095109520953095B4
:100830000F5F1F4F2F4F3F4F0895019110810EC042
:1008400001911191219130810BC00191108117FF0D
:1008500005C03FEF2FEF04C0008111272227332767
:1008600037FF03C0E1DF8DE28D93CF93DF93CF920B
:10087000DF92EF92AA24BB24CC24DD24EE2440E2B4
:10088000CAE0DD2755E093E38881890F87FD9F70DB
:1008900083FD907F891B89935A95A9F7C0DFAA1C15
:1008A000BB1CCC1CDD1CEE1C4A9551F7E894EFE014
:1008B000FF2782910ED0EB30E0F71EF068948A2D6E
:1008C0000CD088278D93EF90DF90CF90DF91CF9160
:1008D0000895982F829501D0892F8F70805D26F022
:1008E000803309F4089568948D93089594E081917C
:1008F0008D939A95E1F708950000F0410000000003
:10090000526573657400343020003336200033356F
:020910002000C5
:00000001FF
